{
  "contractName": "Election",
  "abi": [
    {
      "inputs": [
        {
          "internalType": "string",
          "name": "_electionName",
          "type": "string"
        },
        {
          "internalType": "address",
          "name": "_manager",
          "type": "address"
        }
      ],
      "stateMutability": "nonpayable",
      "type": "constructor"
    },
    {
      "inputs": [],
      "name": "candidateCount",
      "outputs": [
        {
          "internalType": "uint256",
          "name": "",
          "type": "uint256"
        }
      ],
      "stateMutability": "view",
      "type": "function"
    },
    {
      "inputs": [
        {
          "internalType": "address",
          "name": "",
          "type": "address"
        }
      ],
      "name": "candidateRegister",
      "outputs": [
        {
          "internalType": "bool",
          "name": "",
          "type": "bool"
        }
      ],
      "stateMutability": "view",
      "type": "function"
    },
    {
      "inputs": [
        {
          "internalType": "uint256",
          "name": "",
          "type": "uint256"
        }
      ],
      "name": "candidates",
      "outputs": [
        {
          "internalType": "uint256",
          "name": "candidateId",
          "type": "uint256"
        },
        {
          "internalType": "string",
          "name": "candidateName",
          "type": "string"
        },
        {
          "internalType": "address",
          "name": "candidateAddress",
          "type": "address"
        },
        {
          "internalType": "uint256",
          "name": "candidateVote",
          "type": "uint256"
        }
      ],
      "stateMutability": "view",
      "type": "function"
    },
    {
      "inputs": [],
      "name": "electionName",
      "outputs": [
        {
          "internalType": "string",
          "name": "",
          "type": "string"
        }
      ],
      "stateMutability": "view",
      "type": "function"
    },
    {
      "inputs": [],
      "name": "manager",
      "outputs": [
        {
          "internalType": "address",
          "name": "",
          "type": "address"
        }
      ],
      "stateMutability": "view",
      "type": "function"
    },
    {
      "inputs": [],
      "name": "state",
      "outputs": [
        {
          "internalType": "enum Election.State",
          "name": "",
          "type": "uint8"
        }
      ],
      "stateMutability": "view",
      "type": "function"
    },
    {
      "inputs": [
        {
          "internalType": "address",
          "name": "",
          "type": "address"
        }
      ],
      "name": "voterRegister",
      "outputs": [
        {
          "internalType": "bool",
          "name": "",
          "type": "bool"
        }
      ],
      "stateMutability": "view",
      "type": "function"
    },
    {
      "inputs": [],
      "name": "getstate",
      "outputs": [
        {
          "internalType": "enum Election.State",
          "name": "",
          "type": "uint8"
        }
      ],
      "stateMutability": "view",
      "type": "function"
    },
    {
      "inputs": [
        {
          "internalType": "string",
          "name": "_candidateName",
          "type": "string"
        },
        {
          "internalType": "address",
          "name": "_candidateAddress",
          "type": "address"
        }
      ],
      "name": "addCandidate",
      "outputs": [],
      "stateMutability": "nonpayable",
      "type": "function"
    },
    {
      "inputs": [],
      "name": "finalizeCandidate",
      "outputs": [],
      "stateMutability": "nonpayable",
      "type": "function"
    },
    {
      "inputs": [
        {
          "internalType": "uint256",
          "name": "_id",
          "type": "uint256"
        }
      ],
      "name": "doVote",
      "outputs": [],
      "stateMutability": "nonpayable",
      "type": "function"
    },
    {
      "inputs": [],
      "name": "endVoting",
      "outputs": [],
      "stateMutability": "nonpayable",
      "type": "function"
    }
  ],
  "bytecode": "0x60806040523480156200001157600080fd5b5060405162000e7538038062000e75833981810160405260408110156200003757600080fd5b81019080805160405193929190846401000000008211156200005857600080fd5b838201915060208201858111156200006f57600080fd5b82518660018202830111640100000000821117156200008d57600080fd5b8083526020830192505050908051906020019080838360005b83811015620000c3578082015181840152602081019050620000a6565b50505050905090810190601f168015620000f15780820380516001836020036101000a031916815260200191505b506040526020018051906020019092919050505081600090805190602001906200011d9291906200018c565b5080600160006101000a81548173ffffffffffffffffffffffffffffffffffffffff021916908373ffffffffffffffffffffffffffffffffffffffff1602179055506000600660006101000a81548160ff021916908360028111156200017f57fe5b0217905550505062000242565b828054600181600116156101000203166002900490600052602060002090601f016020900481019282620001c4576000855562000210565b82601f10620001df57805160ff191683800117855562000210565b8280016001018555821562000210579182015b828111156200020f578251825591602001919060010190620001f2565b5b5090506200021f919062000223565b5090565b5b808211156200023e57600081600090555060010162000224565b5090565b610c2380620002526000396000f3fe608060405234801561001057600080fd5b50600436106100b45760003560e01c8063a9a981a311610071578063a9a981a314610374578063af15408714610392578063c19d93fb146103ec578063c3403ddf14610415578063eadf63dc1461041f578063f1f65a0814610429576100b4565b8063124258c6146100b9578063296d9ac2146100e75780633477ee2e14610110578063481c6a75146101e25780634a2a84c51461021657806385e8e7a7146102f1575b600080fd5b6100e5600480360360208110156100cf57600080fd5b8101908080359060200190929190505050610483565b005b6100ef610595565b604051808260028111156100ff57fe5b815260200191505060405180910390f35b61013c6004803603602081101561012657600080fd5b81019080803590602001909291905050506105ac565b60405180858152602001806020018473ffffffffffffffffffffffffffffffffffffffff168152602001838152602001828103825285818151815260200191508051906020019080838360005b838110156101a4578082015181840152602081019050610189565b50505050905090810190601f1680156101d15780820380516001836020036101000a031916815260200191505b509550505050505060405180910390f35b6101ea610694565b604051808273ffffffffffffffffffffffffffffffffffffffff16815260200191505060405180910390f35b6102ef6004803603604081101561022c57600080fd5b810190808035906020019064010000000081111561024957600080fd5b82018360208201111561025b57600080fd5b8035906020019184600183028401116401000000008311171561027d57600080fd5b91908080601f016020809104026020016040519081016040528093929190818152602001838380828437600081840152601f19601f820116905080830192505050505050509192919290803573ffffffffffffffffffffffffffffffffffffffff1690602001909291905050506106ba565b005b6102f96108e3565b6040518080602001828103825283818151815260200191508051906020019080838360005b8381101561033957808201518184015260208101905061031e565b50505050905090810190601f1680156103665780820380516001836020036101000a031916815260200191505b509250505060405180910390f35b61037c610981565b6040518082815260200191505060405180910390f35b6103d4600480360360208110156103a857600080fd5b81019080803573ffffffffffffffffffffffffffffffffffffffff169060200190929190505050610987565b60405180821515815260200191505060405180910390f35b6103f46109a7565b6040518082600281111561040457fe5b815260200191505060405180910390f35b61041d6109ba565b005b610427610a6e565b005b61046b6004803603602081101561043f57600080fd5b81019080803573ffffffffffffffffffffffffffffffffffffffff169060200190929190505050610b22565b60405180821515815260200191505060405180910390f35b600180600281111561049157fe5b600660009054906101000a900460ff1660028111156104ac57fe5b146104b657600080fd5b60001515600460003373ffffffffffffffffffffffffffffffffffffffff1673ffffffffffffffffffffffffffffffffffffffff16815260200190815260200160002060009054906101000a900460ff1615151461051357600080fd5b60036000838152602001908152602001600020600301600081548092919060010191905055506001600460003373ffffffffffffffffffffffffffffffffffffffff1673ffffffffffffffffffffffffffffffffffffffff16815260200190815260200160002060006101000a81548160ff0219169083151502179055505050565b6000600660009054906101000a900460ff16905090565b6003602052806000526040600020600091509050806000015490806001018054600181600116156101000203166002900480601f01602080910402602001604051908101604052809291908181526020018280546001816001161561010002031660029004801561065e5780601f106106335761010080835404028352916020019161065e565b820191906000526020600020905b81548152906001019060200180831161064157829003601f168201915b5050505050908060020160009054906101000a900473ffffffffffffffffffffffffffffffffffffffff16908060030154905084565b600160009054906101000a900473ffffffffffffffffffffffffffffffffffffffff1681565b600160009054906101000a900473ffffffffffffffffffffffffffffffffffffffff1673ffffffffffffffffffffffffffffffffffffffff163373ffffffffffffffffffffffffffffffffffffffff161461071457600080fd5b600080600281111561072257fe5b600660009054906101000a900460ff16600281111561073d57fe5b1461074757600080fd5b60001515600560008473ffffffffffffffffffffffffffffffffffffffff1673ffffffffffffffffffffffffffffffffffffffff16815260200190815260200160002060009054906101000a900460ff161515146107a457600080fd5b6002600081548092919060010191905055506000604051806080016040528060025481526020018581526020018473ffffffffffffffffffffffffffffffffffffffff1681526020016000815250905080600360006002548152602001908152602001600020600082015181600001556020820151816001019080519060200190610830929190610b42565b5060408201518160020160006101000a81548173ffffffffffffffffffffffffffffffffffffffff021916908373ffffffffffffffffffffffffffffffffffffffff160217905550606082015181600301559050506001600560008573ffffffffffffffffffffffffffffffffffffffff1673ffffffffffffffffffffffffffffffffffffffff16815260200190815260200160002060006101000a81548160ff02191690831515021790555050505050565b60008054600181600116156101000203166002900480601f0160208091040260200160405190810160405280929190818152602001828054600181600116156101000203166002900480156109795780601f1061094e57610100808354040283529160200191610979565b820191906000526020600020905b81548152906001019060200180831161095c57829003601f168201915b505050505081565b60025481565b60046020528060005260406000206000915054906101000a900460ff1681565b600660009054906101000a900460ff1681565b600160009054906101000a900473ffffffffffffffffffffffffffffffffffffffff1673ffffffffffffffffffffffffffffffffffffffff163373ffffffffffffffffffffffffffffffffffffffff1614610a1457600080fd5b6001806002811115610a2257fe5b600660009054906101000a900460ff166002811115610a3d57fe5b14610a4757600080fd5b6002600660006101000a81548160ff02191690836002811115610a6657fe5b021790555050565b600160009054906101000a900473ffffffffffffffffffffffffffffffffffffffff1673ffffffffffffffffffffffffffffffffffffffff163373ffffffffffffffffffffffffffffffffffffffff1614610ac857600080fd5b6000806002811115610ad657fe5b600660009054906101000a900460ff166002811115610af157fe5b14610afb57600080fd5b6001600660006101000a81548160ff02191690836002811115610b1a57fe5b021790555050565b60056020528060005260406000206000915054906101000a900460ff1681565b828054600181600116156101000203166002900490600052602060002090601f016020900481019282610b785760008555610bbf565b82601f10610b9157805160ff1916838001178555610bbf565b82800160010185558215610bbf579182015b82811115610bbe578251825591602001919060010190610ba3565b5b509050610bcc9190610bd0565b5090565b5b80821115610be9576000816000905550600101610bd1565b509056fea2646970667358221220192d80fb2601fe9ee67fa53f6bd4452efed25ff410d59764b2974bc535aa03b764736f6c63430007060033",
  "immutableReferences": {},
  "source": "// SPDX-License-Identifier: GPL-3.0\r\npragma solidity >=0.4.16;\r\n\r\ncontract ElectionFactory{\r\n    Election[] public allElections;\r\n    \r\n    function createElection(string memory _electionName) public{\r\n        Election newElection = new Election(_electionName, msg.sender);\r\n        allElections.push(newElection);\r\n    }\r\n    \r\n    function getAllElections() public view returns (Election [] memory){\r\n        \r\n        return allElections;\r\n    }\r\n    \r\n\r\n}\r\n\r\ncontract Election {\r\n    \r\n    \r\n   //all variables\r\n   string public electionName;\r\n   address public manager;\r\n   \r\n   struct Candidate{\r\n       uint candidateId;\r\n       string candidateName;\r\n       address candidateAddress;\r\n       uint candidateVote;\r\n   }\r\n   \r\n   uint public candidateCount;\r\n   \r\n   //to store the candidates\r\n   \r\n   mapping(uint => Candidate) public candidates;\r\n   \r\n   //to register the voters;\r\n   mapping(address => bool) public voterRegister;\r\n\r\n    //to register the candidate address\r\n    mapping(address => bool) public candidateRegister;\r\n   \r\n   enum State {creation,voting,ended} State public state;\r\n   \r\n   \r\n   //Modifiers\r\n   modifier requireAdmin(){\r\n       require(msg.sender==manager);\r\n       _;\r\n   }\r\n   \r\n   modifier inState(State _state){\r\n       require(state ==_state);\r\n       _;\r\n   }\r\n   \r\n   //Functions\r\n    constructor (string memory _electionName ,address _manager) {\r\n        electionName=_electionName;\r\n        manager=_manager;\r\n        state = State.creation;\r\n    }\r\n    \r\n    \r\n    \r\n    function getstate() public view returns(State) {\r\n        return state;\r\n    }\r\n    \r\n    //Creation Phase\r\n    function addCandidate(string memory _candidateName,address  _candidateAddress) public requireAdmin inState(State.creation){\r\n        require(candidateRegister[_candidateAddress]==false);\r\n        candidateCount++;\r\n        Candidate memory newCandidate = Candidate({\r\n            candidateId:candidateCount,\r\n            candidateName:_candidateName,\r\n            candidateAddress:_candidateAddress,\r\n            candidateVote:0\r\n        });\r\n        \r\n        candidates[candidateCount]=newCandidate;\r\n        candidateRegister[_candidateAddress]=true;\r\n        \r\n        \r\n    }\r\n    \r\n    function finalizeCandidate() public requireAdmin inState(State.creation){\r\n        state = State.voting;\r\n    }\r\n    \r\n    \r\n    //voting phase\r\n    function doVote(uint _id) public inState(State.voting){\r\n        require(voterRegister[msg.sender]==false);\r\n        candidates[_id].candidateVote++;\r\n        voterRegister[msg.sender]=true;\r\n    }\r\n    \r\n    function endVoting() public requireAdmin inState(State.voting){\r\n        state = State.ended;\r\n    }\r\n\r\n    \r\n    \r\n    \r\n    \r\n    \r\n\r\n\r\n   \r\n}",
  "sourcePath": "C:\\Users\\bittu\\OneDrive\\Desktop\\BChain\\election\\contracts\\Election.sol",
  "compiler": {
    "name": "solc",
    "version": "0.7.6+commit.7338295f.Emscripten.clang"
  },
  "schemaVersion": "3.4.3",
  "updatedAt": "2021-11-28T11:59:41.525Z",
  "devdoc": {
    "kind": "dev",
    "methods": {},
    "version": 1
  },
  "userdoc": {
    "kind": "user",
    "methods": {},
    "version": 1
  }
}